{
  "contractName": "ETHex",
  "abi": [
    {
      "inputs": [
        {
          "internalType": "address payable",
          "name": "marketingAddr",
          "type": "address"
        },
        {
          "internalType": "address payable",
          "name": "projectAddr",
          "type": "address"
        }
      ],
      "payable": false,
      "stateMutability": "nonpayable",
      "type": "constructor"
    },
    {
      "anonymous": false,
      "inputs": [
        {
          "indexed": true,
          "internalType": "address",
          "name": "user",
          "type": "address"
        },
        {
          "indexed": false,
          "internalType": "uint256",
          "name": "totalAmount",
          "type": "uint256"
        }
      ],
      "name": "FeePayed",
      "type": "event"
    },
    {
      "anonymous": false,
      "inputs": [
        {
          "indexed": true,
          "internalType": "address",
          "name": "user",
          "type": "address"
        },
        {
          "indexed": false,
          "internalType": "uint256",
          "name": "amount",
          "type": "uint256"
        }
      ],
      "name": "NewDeposit",
      "type": "event"
    },
    {
      "anonymous": false,
      "inputs": [
        {
          "indexed": false,
          "internalType": "address",
          "name": "user",
          "type": "address"
        }
      ],
      "name": "Newbie",
      "type": "event"
    },
    {
      "anonymous": false,
      "inputs": [
        {
          "indexed": true,
          "internalType": "address",
          "name": "referrer",
          "type": "address"
        },
        {
          "indexed": true,
          "internalType": "address",
          "name": "referral",
          "type": "address"
        },
        {
          "indexed": true,
          "internalType": "uint256",
          "name": "level",
          "type": "uint256"
        },
        {
          "indexed": false,
          "internalType": "uint256",
          "name": "amount",
          "type": "uint256"
        }
      ],
      "name": "RefBonus",
      "type": "event"
    },
    {
      "anonymous": false,
      "inputs": [
        {
          "indexed": true,
          "internalType": "address",
          "name": "user",
          "type": "address"
        },
        {
          "indexed": false,
          "internalType": "uint256",
          "name": "amount",
          "type": "uint256"
        }
      ],
      "name": "Withdrawn",
      "type": "event"
    },
    {
      "constant": true,
      "inputs": [],
      "name": "BASE_PERCENT",
      "outputs": [
        {
          "internalType": "uint256",
          "name": "",
          "type": "uint256"
        }
      ],
      "payable": false,
      "stateMutability": "view",
      "type": "function"
    },
    {
      "constant": true,
      "inputs": [],
      "name": "CONTRACT_BALANCE_STEP",
      "outputs": [
        {
          "internalType": "uint256",
          "name": "",
          "type": "uint256"
        }
      ],
      "payable": false,
      "stateMutability": "view",
      "type": "function"
    },
    {
      "constant": true,
      "inputs": [],
      "name": "INVEST_MIN_AMOUNT",
      "outputs": [
        {
          "internalType": "uint256",
          "name": "",
          "type": "uint256"
        }
      ],
      "payable": false,
      "stateMutability": "view",
      "type": "function"
    },
    {
      "constant": true,
      "inputs": [],
      "name": "MARKETING_FEE",
      "outputs": [
        {
          "internalType": "uint256",
          "name": "",
          "type": "uint256"
        }
      ],
      "payable": false,
      "stateMutability": "view",
      "type": "function"
    },
    {
      "constant": true,
      "inputs": [],
      "name": "PERCENTS_DIVIDER",
      "outputs": [
        {
          "internalType": "uint256",
          "name": "",
          "type": "uint256"
        }
      ],
      "payable": false,
      "stateMutability": "view",
      "type": "function"
    },
    {
      "constant": true,
      "inputs": [],
      "name": "PROJECT_FEE",
      "outputs": [
        {
          "internalType": "uint256",
          "name": "",
          "type": "uint256"
        }
      ],
      "payable": false,
      "stateMutability": "view",
      "type": "function"
    },
    {
      "constant": true,
      "inputs": [
        {
          "internalType": "uint256",
          "name": "",
          "type": "uint256"
        }
      ],
      "name": "REFERRAL_PERCENTS",
      "outputs": [
        {
          "internalType": "uint256",
          "name": "",
          "type": "uint256"
        }
      ],
      "payable": false,
      "stateMutability": "view",
      "type": "function"
    },
    {
      "constant": true,
      "inputs": [],
      "name": "TIME_STEP",
      "outputs": [
        {
          "internalType": "uint256",
          "name": "",
          "type": "uint256"
        }
      ],
      "payable": false,
      "stateMutability": "view",
      "type": "function"
    },
    {
      "constant": true,
      "inputs": [],
      "name": "marketingAddress",
      "outputs": [
        {
          "internalType": "address payable",
          "name": "",
          "type": "address"
        }
      ],
      "payable": false,
      "stateMutability": "view",
      "type": "function"
    },
    {
      "constant": true,
      "inputs": [],
      "name": "projectAddress",
      "outputs": [
        {
          "internalType": "address payable",
          "name": "",
          "type": "address"
        }
      ],
      "payable": false,
      "stateMutability": "view",
      "type": "function"
    },
    {
      "constant": true,
      "inputs": [],
      "name": "totalDeposits",
      "outputs": [
        {
          "internalType": "uint256",
          "name": "",
          "type": "uint256"
        }
      ],
      "payable": false,
      "stateMutability": "view",
      "type": "function"
    },
    {
      "constant": true,
      "inputs": [],
      "name": "totalInvested",
      "outputs": [
        {
          "internalType": "uint256",
          "name": "",
          "type": "uint256"
        }
      ],
      "payable": false,
      "stateMutability": "view",
      "type": "function"
    },
    {
      "constant": true,
      "inputs": [],
      "name": "totalUsers",
      "outputs": [
        {
          "internalType": "uint256",
          "name": "",
          "type": "uint256"
        }
      ],
      "payable": false,
      "stateMutability": "view",
      "type": "function"
    },
    {
      "constant": true,
      "inputs": [],
      "name": "totalWithdrawn",
      "outputs": [
        {
          "internalType": "uint256",
          "name": "",
          "type": "uint256"
        }
      ],
      "payable": false,
      "stateMutability": "view",
      "type": "function"
    },
    {
      "constant": false,
      "inputs": [
        {
          "internalType": "address",
          "name": "referrer",
          "type": "address"
        }
      ],
      "name": "invest",
      "outputs": [],
      "payable": true,
      "stateMutability": "payable",
      "type": "function"
    },
    {
      "constant": false,
      "inputs": [],
      "name": "withdraw",
      "outputs": [],
      "payable": false,
      "stateMutability": "nonpayable",
      "type": "function"
    },
    {
      "constant": true,
      "inputs": [],
      "name": "getContractBalance",
      "outputs": [
        {
          "internalType": "uint256",
          "name": "",
          "type": "uint256"
        }
      ],
      "payable": false,
      "stateMutability": "view",
      "type": "function"
    },
    {
      "constant": true,
      "inputs": [],
      "name": "getContractBalanceRate",
      "outputs": [
        {
          "internalType": "uint256",
          "name": "",
          "type": "uint256"
        }
      ],
      "payable": false,
      "stateMutability": "view",
      "type": "function"
    },
    {
      "constant": true,
      "inputs": [
        {
          "internalType": "address",
          "name": "userAddress",
          "type": "address"
        }
      ],
      "name": "getUserPercentRate",
      "outputs": [
        {
          "internalType": "uint256",
          "name": "",
          "type": "uint256"
        }
      ],
      "payable": false,
      "stateMutability": "view",
      "type": "function"
    },
    {
      "constant": true,
      "inputs": [
        {
          "internalType": "address",
          "name": "userAddress",
          "type": "address"
        }
      ],
      "name": "getUserDividends",
      "outputs": [
        {
          "internalType": "uint256",
          "name": "",
          "type": "uint256"
        }
      ],
      "payable": false,
      "stateMutability": "view",
      "type": "function"
    },
    {
      "constant": true,
      "inputs": [
        {
          "internalType": "address",
          "name": "userAddress",
          "type": "address"
        }
      ],
      "name": "getUserCheckpoint",
      "outputs": [
        {
          "internalType": "uint256",
          "name": "",
          "type": "uint256"
        }
      ],
      "payable": false,
      "stateMutability": "view",
      "type": "function"
    },
    {
      "constant": true,
      "inputs": [
        {
          "internalType": "address",
          "name": "userAddress",
          "type": "address"
        }
      ],
      "name": "getUserReferrer",
      "outputs": [
        {
          "internalType": "address",
          "name": "",
          "type": "address"
        }
      ],
      "payable": false,
      "stateMutability": "view",
      "type": "function"
    },
    {
      "constant": true,
      "inputs": [
        {
          "internalType": "address",
          "name": "userAddress",
          "type": "address"
        }
      ],
      "name": "getUserReferralBonus",
      "outputs": [
        {
          "internalType": "uint256",
          "name": "",
          "type": "uint256"
        }
      ],
      "payable": false,
      "stateMutability": "view",
      "type": "function"
    },
    {
      "constant": true,
      "inputs": [
        {
          "internalType": "address",
          "name": "userAddress",
          "type": "address"
        }
      ],
      "name": "getUserAvailable",
      "outputs": [
        {
          "internalType": "uint256",
          "name": "",
          "type": "uint256"
        }
      ],
      "payable": false,
      "stateMutability": "view",
      "type": "function"
    },
    {
      "constant": true,
      "inputs": [
        {
          "internalType": "address",
          "name": "userAddress",
          "type": "address"
        }
      ],
      "name": "isActive",
      "outputs": [
        {
          "internalType": "bool",
          "name": "",
          "type": "bool"
        }
      ],
      "payable": false,
      "stateMutability": "view",
      "type": "function"
    },
    {
      "constant": true,
      "inputs": [
        {
          "internalType": "address",
          "name": "userAddress",
          "type": "address"
        },
        {
          "internalType": "uint256",
          "name": "index",
          "type": "uint256"
        }
      ],
      "name": "getUserDepositInfo",
      "outputs": [
        {
          "internalType": "uint256",
          "name": "",
          "type": "uint256"
        },
        {
          "internalType": "uint256",
          "name": "",
          "type": "uint256"
        },
        {
          "internalType": "uint256",
          "name": "",
          "type": "uint256"
        }
      ],
      "payable": false,
      "stateMutability": "view",
      "type": "function"
    },
    {
      "constant": true,
      "inputs": [
        {
          "internalType": "address",
          "name": "userAddress",
          "type": "address"
        }
      ],
      "name": "getUserAmountOfDeposits",
      "outputs": [
        {
          "internalType": "uint256",
          "name": "",
          "type": "uint256"
        }
      ],
      "payable": false,
      "stateMutability": "view",
      "type": "function"
    },
    {
      "constant": true,
      "inputs": [
        {
          "internalType": "address",
          "name": "userAddress",
          "type": "address"
        }
      ],
      "name": "getUserTotalDeposits",
      "outputs": [
        {
          "internalType": "uint256",
          "name": "",
          "type": "uint256"
        }
      ],
      "payable": false,
      "stateMutability": "view",
      "type": "function"
    },
    {
      "constant": true,
      "inputs": [
        {
          "internalType": "address",
          "name": "userAddress",
          "type": "address"
        }
      ],
      "name": "getUserTotalWithdrawn",
      "outputs": [
        {
          "internalType": "uint256",
          "name": "",
          "type": "uint256"
        }
      ],
      "payable": false,
      "stateMutability": "view",
      "type": "function"
    }
  ],
  "bytecode": "0x60806040526040518060a00160405280604660ff168152602001603260ff168152602001601e60ff168152602001601460ff168152602001600a60ff1681525060009060056200005192919062000174565b503480156200005f57600080fd5b50604051620023fb380380620023fb833981810160405260408110156200008557600080fd5b810190808051906020019092919080519060200190929190505050620000b1826200016160201b60201c565b158015620000cd5750620000cb816200016160201b60201c565b155b620000d757600080fd5b81600560006101000a81548173ffffffffffffffffffffffffffffffffffffffff021916908373ffffffffffffffffffffffffffffffffffffffff16021790555080600660006101000a81548173ffffffffffffffffffffffffffffffffffffffff021916908373ffffffffffffffffffffffffffffffffffffffff1602179055505050620001f3565b600080823b905060008111915050919050565b828054828255906000526020600020908101928215620001b8579160200282015b82811115620001b7578251829060ff1690559160200191906001019062000195565b5b509050620001c79190620001cb565b5090565b620001f091905b80821115620001ec576000816000905550600101620001d2565b5090565b90565b6121f880620002036000396000f3fe6080604052600436106101c25760003560e01c80636aabddee116100f7578063af3e212211610095578063e262113e11610064578063e262113e146108cd578063e85abe09146108f8578063fb4cb32b1461095d578063fe758b49146109c2576101c2565b8063af3e212214610795578063bff1f9e1146107c0578063c0806b03146107eb578063d7ffca9114610868576101c2565b80637e3abeea116100d15780637e3abeea1461060b5780639f8a13d714610670578063a5ece941146106d9578063a8aeb6c214610730576101c2565b80636aabddee1461058a5780636f9fb98a146105b55780637d882097146105e0576101c2565b80633ccfd60b116101645780634b3197131161013e5780634b319713146104ba5780635216aeec146104e5578063600d20ce1461051057806362f3765e1461055f576101c2565b80633ccfd60b146104215780633cf96af11461043857806348d44bd11461048f576101c2565b8063153ab9df116101a0578063153ab9df1461029b5780631b9a26f01461030057806332bc298c1461036557806336144c9a14610390576101c2565b806301c234a8146101c757806303f9c793146101f2578063040a772e14610236575b600080fd5b3480156101d357600080fd5b506101dc6109ed565b6040518082815260200191505060405180910390f35b6102346004803603602081101561020857600080fd5b81019080803573ffffffffffffffffffffffffffffffffffffffff1690602001909291905050506109f3565b005b34801561024257600080fd5b506102856004803603602081101561025957600080fd5b81019080803573ffffffffffffffffffffffffffffffffffffffff16906020019092919050505061112c565b6040518082815260200191505060405180910390f35b3480156102a757600080fd5b506102ea600480360360208110156102be57600080fd5b81019080803573ffffffffffffffffffffffffffffffffffffffff169060200190929190505050611450565b6040518082815260200191505060405180910390f35b34801561030c57600080fd5b5061034f6004803603602081101561032357600080fd5b81019080803573ffffffffffffffffffffffffffffffffffffffff16906020019092919050505061147c565b6040518082815260200191505060405180910390f35b34801561037157600080fd5b5061037a611552565b6040518082815260200191505060405180910390f35b34801561039c57600080fd5b506103df600480360360208110156103b357600080fd5b81019080803573ffffffffffffffffffffffffffffffffffffffff169060200190929190505050611559565b604051808273ffffffffffffffffffffffffffffffffffffffff1673ffffffffffffffffffffffffffffffffffffffff16815260200191505060405180910390f35b34801561042d57600080fd5b506104366115c5565b005b34801561044457600080fd5b5061044d611ab1565b604051808273ffffffffffffffffffffffffffffffffffffffff1673ffffffffffffffffffffffffffffffffffffffff16815260200191505060405180910390f35b34801561049b57600080fd5b506104a4611ad7565b6040518082815260200191505060405180910390f35b3480156104c657600080fd5b506104cf611adc565b6040518082815260200191505060405180910390f35b3480156104f157600080fd5b506104fa611ae2565b6040518082815260200191505060405180910390f35b34801561051c57600080fd5b506105496004803603602081101561053357600080fd5b8101908080359060200190929190505050611ae8565b6040518082815260200191505060405180910390f35b34801561056b57600080fd5b50610574611b09565b6040518082815260200191505060405180910390f35b34801561059657600080fd5b5061059f611b0e565b6040518082815260200191505060405180910390f35b3480156105c157600080fd5b506105ca611b1b565b6040518082815260200191505060405180910390f35b3480156105ec57600080fd5b506105f5611b23565b6040518082815260200191505060405180910390f35b34801561061757600080fd5b5061065a6004803603602081101561062e57600080fd5b81019080803573ffffffffffffffffffffffffffffffffffffffff169060200190929190505050611b29565b6040518082815260200191505060405180910390f35b34801561067c57600080fd5b506106bf6004803603602081101561069357600080fd5b81019080803573ffffffffffffffffffffffffffffffffffffffff169060200190929190505050611bd1565b604051808215151515815260200191505060405180910390f35b3480156106e557600080fd5b506106ee611caa565b604051808273ffffffffffffffffffffffffffffffffffffffff1673ffffffffffffffffffffffffffffffffffffffff16815260200191505060405180910390f35b34801561073c57600080fd5b5061077f6004803603602081101561075357600080fd5b81019080803573ffffffffffffffffffffffffffffffffffffffff169060200190929190505050611cd0565b6040518082815260200191505060405180910390f35b3480156107a157600080fd5b506107aa611d1f565b6040518082815260200191505060405180910390f35b3480156107cc57600080fd5b506107d5611d24565b6040518082815260200191505060405180910390f35b3480156107f757600080fd5b506108446004803603604081101561080e57600080fd5b81019080803573ffffffffffffffffffffffffffffffffffffffff16906020019092919080359060200190929190505050611d2a565b60405180848152602001838152602001828152602001935050505060405180910390f35b34801561087457600080fd5b506108b76004803603602081101561088b57600080fd5b81019080803573ffffffffffffffffffffffffffffffffffffffff169060200190929190505050611de2565b6040518082815260200191505060405180910390f35b3480156108d957600080fd5b506108e2611e2e565b6040518082815260200191505060405180910390f35b34801561090457600080fd5b506109476004803603602081101561091b57600080fd5b81019080803573ffffffffffffffffffffffffffffffffffffffff169060200190929190505050611e3a565b6040518082815260200191505060405180910390f35b34801561096957600080fd5b506109ac6004803603602081101561098057600080fd5b81019080803573ffffffffffffffffffffffffffffffffffffffff169060200190929190505050611e86565b6040518082815260200191505060405180910390f35b3480156109ce57600080fd5b506109d7611f2e565b6040518082815260200191505060405180910390f35b6103e881565b67016345785d8a0000341015610a0857600080fd5b600560009054906101000a900473ffffffffffffffffffffffffffffffffffffffff1673ffffffffffffffffffffffffffffffffffffffff166108fc610a6c6103e8610a5e603234611f7c90919063ffffffff16565b61200290919063ffffffff16565b9081150290604051600060405180830381858888f19350505050158015610a97573d6000803e3d6000fd5b50600660009054906101000a900473ffffffffffffffffffffffffffffffffffffffff1673ffffffffffffffffffffffffffffffffffffffff166108fc610afc6103e8610aee603234611f7c90919063ffffffff16565b61200290919063ffffffff16565b9081150290604051600060405180830381858888f19350505050158015610b27573d6000803e3d6000fd5b503373ffffffffffffffffffffffffffffffffffffffff167f2899dc8c12def1caa9accb64257cf2fd9f960f21bb27a560a757eae3c2ec43c1610b9a6103e8610b8c610b7d60328061209190919063ffffffff16565b34611f7c90919063ffffffff16565b61200290919063ffffffff16565b6040518082815260200191505060405180910390a26000600760003373ffffffffffffffffffffffffffffffffffffffff1673ffffffffffffffffffffffffffffffffffffffff1681526020019081526020016000209050600073ffffffffffffffffffffffffffffffffffffffff168160020160009054906101000a900473ffffffffffffffffffffffffffffffffffffffff1673ffffffffffffffffffffffffffffffffffffffff16148015610c9757506000600760008473ffffffffffffffffffffffffffffffffffffffff1673ffffffffffffffffffffffffffffffffffffffff16815260200190815260200160002060000180549050115b8015610ccf57503373ffffffffffffffffffffffffffffffffffffffff168273ffffffffffffffffffffffffffffffffffffffff1614155b15610d1857818160020160006101000a81548173ffffffffffffffffffffffffffffffffffffffff021916908373ffffffffffffffffffffffffffffffffffffffff1602179055505b600073ffffffffffffffffffffffffffffffffffffffff168160020160009054906101000a900473ffffffffffffffffffffffffffffffffffffffff1673ffffffffffffffffffffffffffffffffffffffff1614610f9f5760008160020160009054906101000a900473ffffffffffffffffffffffffffffffffffffffff16905060008090505b6005811015610f9c57600073ffffffffffffffffffffffffffffffffffffffff168273ffffffffffffffffffffffffffffffffffffffff1614610f8a576000610e1c6103e8610e0e60008581548110610df457fe5b906000526020600020015434611f7c90919063ffffffff16565b61200290919063ffffffff16565b9050610e7381600760008673ffffffffffffffffffffffffffffffffffffffff1673ffffffffffffffffffffffffffffffffffffffff1681526020019081526020016000206003015461209190919063ffffffff16565b600760008573ffffffffffffffffffffffffffffffffffffffff1673ffffffffffffffffffffffffffffffffffffffff16815260200190815260200160002060030181905550813373ffffffffffffffffffffffffffffffffffffffff168473ffffffffffffffffffffffffffffffffffffffff167fd41f7e766eebcc7ff42b11ac8691bdf864db4afc0c55e71d629d54edce460d98846040518082815260200191505060405180910390a4600760008473ffffffffffffffffffffffffffffffffffffffff1673ffffffffffffffffffffffffffffffffffffffff16815260200190815260200160002060020160009054906101000a900473ffffffffffffffffffffffffffffffffffffffff16925050610f8f565b610f9c565b8080600101915050610d9f565b50505b60008160000180549050141561103757428160010181905550610fcd6001805461209190919063ffffffff16565b6001819055507f9fd565cd14c3c391679eb0cad12a14dcf7534e9d3462bcb9b67a098a9bbbc24a33604051808273ffffffffffffffffffffffffffffffffffffffff1673ffffffffffffffffffffffffffffffffffffffff16815260200191505060405180910390a15b8060000160405180606001604052803481526020016000815260200142815250908060018154018082558091505090600182039060005260206000209060030201600090919290919091506000820151816000015560208201518160010155604082015181600201555050506110b83460025461209190919063ffffffff16565b6002819055506110d4600160045461209190919063ffffffff16565b6004819055503373ffffffffffffffffffffffffffffffffffffffff167f2cb77763bc1e8490c1a904905c4d74b4269919aca114464f4bb4d911e60de364346040518082815260200191505060405180910390a25050565b600080600760008473ffffffffffffffffffffffffffffffffffffffff1673ffffffffffffffffffffffffffffffffffffffff1681526020019081526020016000209050600061117b8461147c565b905060008060008090505b8460000180549050811015611443576111c960028660000183815481106111a957fe5b906000526020600020906003020160000154611f7c90919063ffffffff16565b8560000182815481106111d857fe5b906000526020600020906003020160010154101561143657846001015485600001828154811061120457fe5b90600052602060002090600302016002015411156112c3576112bc620151806112ae61125988600001858154811061123857fe5b9060005260206000209060030201600201544261211990919063ffffffff16565b6112a06103e86112928a8c600001898154811061127257fe5b906000526020600020906003020160000154611f7c90919063ffffffff16565b61200290919063ffffffff16565b611f7c90919063ffffffff16565b61200290919063ffffffff16565b915061134a565b611347620151806113396112e488600101544261211990919063ffffffff16565b61132b6103e861131d8a8c60000189815481106112fd57fe5b906000526020600020906003020160000154611f7c90919063ffffffff16565b61200290919063ffffffff16565b611f7c90919063ffffffff16565b61200290919063ffffffff16565b91505b61137e600286600001838154811061135e57fe5b906000526020600020906003020160000154611f7c90919063ffffffff16565b6113b18387600001848154811061139157fe5b90600052602060002090600302016001015461209190919063ffffffff16565b11156114205761141d8560000182815481106113c957fe5b90600052602060002090600302016001015461140f60028860000185815481106113ef57fe5b906000526020600020906003020160000154611f7c90919063ffffffff16565b61211990919063ffffffff16565b91505b611433828461209190919063ffffffff16565b92505b8080600101915050611186565b5081945050505050919050565b600061147561145e8361112c565b61146784611e3a565b61209190919063ffffffff16565b9050919050565b600080600760008473ffffffffffffffffffffffffffffffffffffffff1673ffffffffffffffffffffffffffffffffffffffff168152602001908152602001600020905060006114ca611f2e565b90506114d584611bd1565b1561154757600061151b600561150d620151806114ff87600101544261211990919063ffffffff16565b61200290919063ffffffff16565b611f7c90919063ffffffff16565b90506032811061152a57603290505b61153d818361209190919063ffffffff16565b935050505061154d565b80925050505b919050565b6201518081565b6000600760008373ffffffffffffffffffffffffffffffffffffffff1673ffffffffffffffffffffffffffffffffffffffff16815260200190815260200160002060020160009054906101000a900473ffffffffffffffffffffffffffffffffffffffff169050919050565b6000600760003373ffffffffffffffffffffffffffffffffffffffff1673ffffffffffffffffffffffffffffffffffffffff168152602001908152602001600020905060006116133361147c565b905060008060008090505b846000018054905081101561193257611661600286600001838154811061164157fe5b906000526020600020906003020160000154611f7c90919063ffffffff16565b85600001828154811061167057fe5b906000526020600020906003020160010154101561192557846001015485600001828154811061169c57fe5b906000526020600020906003020160020154111561175b57611754620151806117466116f18860000185815481106116d057fe5b9060005260206000209060030201600201544261211990919063ffffffff16565b6117386103e861172a8a8c600001898154811061170a57fe5b906000526020600020906003020160000154611f7c90919063ffffffff16565b61200290919063ffffffff16565b611f7c90919063ffffffff16565b61200290919063ffffffff16565b91506117e2565b6117df620151806117d161177c88600101544261211990919063ffffffff16565b6117c36103e86117b58a8c600001898154811061179557fe5b906000526020600020906003020160000154611f7c90919063ffffffff16565b61200290919063ffffffff16565b611f7c90919063ffffffff16565b61200290919063ffffffff16565b91505b61181660028660000183815481106117f657fe5b906000526020600020906003020160000154611f7c90919063ffffffff16565b6118498387600001848154811061182957fe5b90600052602060002090600302016001015461209190919063ffffffff16565b11156118b8576118b585600001828154811061186157fe5b9060005260206000209060030201600101546118a7600288600001858154811061188757fe5b906000526020600020906003020160000154611f7c90919063ffffffff16565b61211990919063ffffffff16565b91505b6118eb828660000183815481106118cb57fe5b90600052602060002090600302016001015461209190919063ffffffff16565b8560000182815481106118fa57fe5b906000526020600020906003020160010181905550611922828461209190919063ffffffff16565b92505b808060010191505061161e565b50600061193e33611e3a565b905060008111156119695761195c818461209190919063ffffffff16565b9250600085600301819055505b600083116119df576040517f08c379a00000000000000000000000000000000000000000000000000000000081526004018080602001828103825260158152602001807f5573657220686173206e6f206469766964656e6473000000000000000000000081525060200191505060405180910390fd5b6000479050838110156119f0578093505b4286600101819055503373ffffffffffffffffffffffffffffffffffffffff166108fc859081150290604051600060405180830381858888f19350505050158015611a3f573d6000803e3d6000fd5b50611a558460035461209190919063ffffffff16565b6003819055503373ffffffffffffffffffffffffffffffffffffffff167f7084f5476618d8e60b11ef0d7d3f06914655adb8793e28ff7f018d4c76d505d5856040518082815260200191505060405180910390a2505050505050565b600660009054906101000a900473ffffffffffffffffffffffffffffffffffffffff1681565b603281565b60035481565b60025481565b60008181548110611af557fe5b906000526020600020016000915090505481565b600281565b6801158e460913d0000081565b600047905090565b60045481565b600080600760008473ffffffffffffffffffffffffffffffffffffffff1673ffffffffffffffffffffffffffffffffffffffff1681526020019081526020016000209050600080600090505b8260000180549050811015611bc657611bb7836000018281548110611b9657fe5b9060005260206000209060030201600001548361209190919063ffffffff16565b91508080600101915050611b75565b508092505050919050565b600080600760008473ffffffffffffffffffffffffffffffffffffffff1673ffffffffffffffffffffffffffffffffffffffff1681526020019081526020016000209050600081600001805490501115611c9f57611c63600282600001600184600001805490500381548110611c4357fe5b906000526020600020906003020160000154611f7c90919063ffffffff16565b81600001600183600001805490500381548110611c7c57fe5b9060005260206000209060030201600101541015611c9e576001915050611ca5565b5b60009150505b919050565b600560009054906101000a900473ffffffffffffffffffffffffffffffffffffffff1681565b6000600760008373ffffffffffffffffffffffffffffffffffffffff1673ffffffffffffffffffffffffffffffffffffffff168152602001908152602001600020600001805490509050919050565b603281565b60015481565b600080600080600760008773ffffffffffffffffffffffffffffffffffffffff1673ffffffffffffffffffffffffffffffffffffffff1681526020019081526020016000209050806000018581548110611d8057fe5b906000526020600020906003020160000154816000018681548110611da157fe5b906000526020600020906003020160010154826000018781548110611dc257fe5b906000526020600020906003020160020154935093509350509250925092565b6000600760008373ffffffffffffffffffffffffffffffffffffffff1673ffffffffffffffffffffffffffffffffffffffff168152602001908152602001600020600101549050919050565b67016345785d8a000081565b6000600760008373ffffffffffffffffffffffffffffffffffffffff1673ffffffffffffffffffffffffffffffffffffffff168152602001908152602001600020600301549050919050565b600080600760008473ffffffffffffffffffffffffffffffffffffffff1673ffffffffffffffffffffffffffffffffffffffff1681526020019081526020016000209050600080600090505b8260000180549050811015611f2357611f14836000018281548110611ef357fe5b9060005260206000209060030201600101548361209190919063ffffffff16565b91508080600101915050611ed2565b508092505050919050565b6000804790506000611f526801158e460913d000008361200290919063ffffffff16565b905060c88110611f615760c890505b611f7581600261209190919063ffffffff16565b9250505090565b600080831415611f8f5760009050611ffc565b6000828402905082848281611fa057fe5b0414611ff7576040517f08c379a00000000000000000000000000000000000000000000000000000000081526004018080602001828103825260218152602001806121a36021913960400191505060405180910390fd5b809150505b92915050565b6000808211612079576040517f08c379a000000000000000000000000000000000000000000000000000000000815260040180806020018281038252601a8152602001807f536166654d6174683a206469766973696f6e206279207a65726f00000000000081525060200191505060405180910390fd5b600082848161208457fe5b0490508091505092915050565b60008082840190508381101561210f576040517f08c379a000000000000000000000000000000000000000000000000000000000815260040180806020018281038252601b8152602001807f536166654d6174683a206164646974696f6e206f766572666c6f77000000000081525060200191505060405180910390fd5b8091505092915050565b600082821115612191576040517f08c379a000000000000000000000000000000000000000000000000000000000815260040180806020018281038252601e8152602001807f536166654d6174683a207375627472616374696f6e206f766572666c6f77000081525060200191505060405180910390fd5b60008284039050809150509291505056fe536166654d6174683a206d756c7469706c69636174696f6e206f766572666c6f77a265627a7a72315820a4488885e2736a9972c7da2695e61cd3997ef79f472a7426d995f0fbb1df92ff64736f6c63430005100032",
  "source": "\n\npragma solidity >=0.5.10;\n\n\n//market  0x71B5Abb79fFe7cE07e93E8f196F88df24d9f0ed8\n//   0x176d425Ea31AcFe728c1FBB7CDf21E6b7d7B2A2F\n\n\nlibrary SafeMath {\n\n    function add(uint256 a, uint256 b) internal pure returns (uint256) {\n        uint256 c = a + b;\n        require(c >= a, \"SafeMath: addition overflow\");\n\n        return c;\n    }\n\n    function sub(uint256 a, uint256 b) internal pure returns (uint256) {\n        require(b <= a, \"SafeMath: subtraction overflow\");\n        uint256 c = a - b;\n\n        return c;\n    }\n\n    function mul(uint256 a, uint256 b) internal pure returns (uint256) {\n        if (a == 0) {\n            return 0;\n        }\n\n        uint256 c = a * b;\n        require(c / a == b, \"SafeMath: multiplication overflow\");\n\n        return c;\n    }\n\n    function div(uint256 a, uint256 b) internal pure returns (uint256) {\n        require(b > 0, \"SafeMath: division by zero\");\n        uint256 c = a / b;\n\n        return c;\n    }\n}\n\n\ncontract ETHex {\n    using SafeMath for uint256;\n\n    uint256 constant public INVEST_MIN_AMOUNT = 100 finney;\n    uint256 constant public BASE_PERCENT = 2;\n    uint256[] public REFERRAL_PERCENTS = [70,50,30,20,10];\n    uint256 constant public MARKETING_FEE = 50;\n    uint256 constant public PROJECT_FEE = 50;\n    uint256 constant public PERCENTS_DIVIDER = 1000;\n    uint256 constant public CONTRACT_BALANCE_STEP = 20 ether ;\n    uint256 constant public TIME_STEP = 1 days;\n\n    uint256 public totalUsers;\n    uint256 public totalInvested;\n    uint256 public totalWithdrawn;\n    uint256 public totalDeposits;\n\n    address payable public marketingAddress;\n    address payable public projectAddress;\n\n    struct Deposit {\n        uint256 amount;\n        uint256 withdrawn;\n        uint256 paidAt;\n    }\n\n    struct User {\n        Deposit[] deposits;\n        uint256 checkpoint;\n        address referrer;\n        uint256 bonus;\n    }\n\n    mapping (address => User) internal users;\n\n    event Newbie(address user);\n    event NewDeposit(address indexed user, uint256 amount);\n    event Withdrawn(address indexed user, uint256 amount);\n    event RefBonus(address indexed referrer, address indexed referral, uint256 indexed level, uint256 amount);\n    event FeePayed(address indexed user, uint256 totalAmount);\n\n    constructor(address payable marketingAddr, address payable projectAddr) public {\n        require(!isContract(marketingAddr) && !isContract(projectAddr));\n        marketingAddress = marketingAddr;\n        projectAddress = projectAddr;\n    }\n\n    function invest(address referrer) public payable {\n        require(msg.value >= INVEST_MIN_AMOUNT);\n\n        marketingAddress.transfer(msg.value.mul(MARKETING_FEE).div(PERCENTS_DIVIDER));\n        projectAddress.transfer(msg.value.mul(PROJECT_FEE).div(PERCENTS_DIVIDER));\n        emit FeePayed(msg.sender, msg.value.mul(MARKETING_FEE.add(PROJECT_FEE)).div(PERCENTS_DIVIDER));\n\n        User storage user = users[msg.sender];\n\n        if (user.referrer == address(0) && users[referrer].deposits.length > 0 && referrer != msg.sender) {\n            user.referrer = referrer;\n        }\n\n        if (user.referrer != address(0)) {\n            address upline = user.referrer;\n            for (uint256 i = 0; i < 5; i++) {\n                if (upline != address(0)) {\n                    uint256 amount = msg.value.mul(REFERRAL_PERCENTS[i]).div(PERCENTS_DIVIDER);\n                    users[upline].bonus = users[upline].bonus.add(amount);\n                    emit RefBonus(upline, msg.sender, i, amount);\n                    upline = users[upline].referrer;\n                } else break;\n            }\n        }\n\n        if (user.deposits.length == 0) {\n            user.checkpoint = block.timestamp;\n            totalUsers = totalUsers.add(1);\n            emit Newbie(msg.sender);\n        }\n\n        user.deposits.push(Deposit(msg.value, 0, block.timestamp));\n\n        totalInvested = totalInvested.add(msg.value);\n        totalDeposits = totalDeposits.add(1);\n\n        emit NewDeposit(msg.sender, msg.value);\n\n    }\n\n    function withdraw() public {\n        User storage user = users[msg.sender];\n\n        uint256 userPercentRate = getUserPercentRate(msg.sender);\n\n        uint256 totalAmount;\n        uint256 dividends;\n\n        for (uint256 i = 0; i < user.deposits.length; i++) {\n\n            if (user.deposits[i].withdrawn < user.deposits[i].amount.mul(2)) {\n\n                if (user.deposits[i].paidAt > user.checkpoint) {\n\n                    dividends = (user.deposits[i].amount.mul(userPercentRate).div(PERCENTS_DIVIDER))\n                    .mul(block.timestamp.sub(user.deposits[i].paidAt))\n                    .div(TIME_STEP);\n                } else {\n\n                    dividends = (user.deposits[i].amount.mul(userPercentRate).div(PERCENTS_DIVIDER))\n                    .mul(block.timestamp.sub(user.checkpoint))\n                    .div(TIME_STEP);\n                }\n\n                if (user.deposits[i].withdrawn.add(dividends) > user.deposits[i].amount.mul(2)) {\n                    dividends = (user.deposits[i].amount.mul(2)).sub(user.deposits[i].withdrawn);\n                }\n\n                user.deposits[i].withdrawn = user.deposits[i].withdrawn.add(dividends); /// changing of storage data\n                totalAmount = totalAmount.add(dividends);\n\n            }\n        }\n\n        uint256 referralBonus = getUserReferralBonus(msg.sender);\n        if (referralBonus > 0) {\n            totalAmount = totalAmount.add(referralBonus);\n            user.bonus = 0;\n        }\n\n        require(totalAmount > 0, \"User has no dividends\");\n\n        uint256 contractBalance = address(this).balance;\n        if (contractBalance < totalAmount) {\n            totalAmount = contractBalance;\n        }\n\n        user.checkpoint = block.timestamp;\n\n        msg.sender.transfer(totalAmount);\n\n        totalWithdrawn = totalWithdrawn.add(totalAmount);\n\n        emit Withdrawn(msg.sender, totalAmount);\n\n    }\n\n    function getContractBalance() public view returns (uint256) {\n        return address(this).balance;\n    }\n\n    function getContractBalanceRate() public view returns (uint256) {\n        uint256 contractBalance = address(this).balance;\n        uint256 contractBalancePercent = contractBalance.div(CONTRACT_BALANCE_STEP);\n        if (contractBalancePercent >= 200){contractBalancePercent = 200;}\n        return BASE_PERCENT.add(contractBalancePercent);\n    }\n\n    function getUserPercentRate(address userAddress) public view returns (uint256) {\n        User storage user = users[userAddress];\n\n        uint256 contractBalanceRate = getContractBalanceRate();\n        if (isActive(userAddress)) {\n            uint256 timeMultiplier = (now.sub(user.checkpoint)).div(TIME_STEP).mul(5);\n            if (timeMultiplier >= 50){ timeMultiplier = 50 ; }\n            return contractBalanceRate.add(timeMultiplier);\n        } else {\n            return contractBalanceRate;\n        }\n    }\n\n    function getUserDividends(address userAddress) public view returns (uint256) {\n        User storage user = users[userAddress];\n\n        uint256 userPercentRate = getUserPercentRate(userAddress);\n\n        uint256 totalDividends;\n        uint256 dividends;\n\n        for (uint256 i = 0; i < user.deposits.length; i++) {\n\n            if (user.deposits[i].withdrawn < user.deposits[i].amount.mul(2)) {\n\n                if (user.deposits[i].paidAt > user.checkpoint) {\n\n                    dividends = (user.deposits[i].amount.mul(userPercentRate).div(PERCENTS_DIVIDER))\n                    .mul(block.timestamp.sub(user.deposits[i].paidAt))\n                    .div(TIME_STEP);\n\n                } else {\n\n                    dividends = (user.deposits[i].amount.mul(userPercentRate).div(PERCENTS_DIVIDER))\n                    .mul(block.timestamp.sub(user.checkpoint))\n                    .div(TIME_STEP);\n\n                }\n\n                if (user.deposits[i].withdrawn.add(dividends) > user.deposits[i].amount.mul(2)) {\n                    dividends = (user.deposits[i].amount.mul(2)).sub(user.deposits[i].withdrawn);\n                }\n\n                totalDividends = totalDividends.add(dividends);\n            }\n\n        }\n\n        return totalDividends;\n    }\n\n    function getUserCheckpoint(address userAddress) public view returns(uint256) {\n        return users[userAddress].checkpoint;\n    }\n\n    function getUserReferrer(address userAddress) public view returns(address) {\n        return users[userAddress].referrer;\n    }\n\n    function getUserReferralBonus(address userAddress) public view returns(uint256) {\n        return users[userAddress].bonus;\n    }\n\n    function getUserAvailable(address userAddress) public view returns(uint256) {\n        return getUserReferralBonus(userAddress).add(getUserDividends(userAddress));\n    }\n\n    function isActive(address userAddress) public view returns (bool) {\n        User storage user = users[userAddress];\n\n        if (user.deposits.length > 0) {\n            if (user.deposits[user.deposits.length-1].withdrawn < user.deposits[user.deposits.length-1].amount.mul(2)) {\n                return true;\n            }\n        }\n        return false ;\n    }\n\n    function getUserDepositInfo(address userAddress, uint256 index) public view returns(uint256, uint256, uint256) {\n        User storage user = users[userAddress];\n        return (user.deposits[index].amount, user.deposits[index].withdrawn, user.deposits[index].paidAt);\n    }\n\n    function getUserAmountOfDeposits(address userAddress) public view returns(uint256) {\n        return users[userAddress].deposits.length;\n    }\n\n    function getUserTotalDeposits(address userAddress) public view returns(uint256) {\n        User storage user = users[userAddress];\n\n        uint256 amount;\n\n        for (uint256 i = 0; i < user.deposits.length; i++) {\n            amount = amount.add(user.deposits[i].amount);\n        }\n\n        return amount;\n    }\n\n    function getUserTotalWithdrawn(address userAddress) public view returns(uint256) {\n        User storage user = users[userAddress];\n\n        uint256 amount;\n\n        for (uint256 i = 0; i < user.deposits.length; i++) {\n            amount = amount.add(user.deposits[i].withdrawn);\n        }\n\n        return amount;\n    }\n\n    function isContract(address addr) internal view returns (bool) {\n        uint size;\n        assembly { size := extcodesize(addr) }\n        return size > 0;\n    }\n\n}\n",
  "sourcePath": "E://demo//MFTex-/contracts/ETHex.sol",
  "compiler": {
    "name": "solc",
    "version": "0.5.16+commit.9c3226ce.Emscripten.clang"
  },
  "schemaVersion": "3.2.3",
  "updatedAt": "2020-10-10T07:58:38.284Z",
  "networkType": "ethereum",
  "devdoc": {
    "methods": {}
  },
  "userdoc": {
    "methods": {}
  }
}